{
  "contractName": "NeedHelp",
  "abi": [
    {
      "constant": true,
      "inputs": [],
      "name": "janesCount",
      "outputs": [
        {
          "name": "",
          "type": "uint256"
        }
      ],
      "payable": false,
      "stateMutability": "view",
      "type": "function"
    },
    {
      "constant": true,
      "inputs": [
        {
          "name": "",
          "type": "uint256"
        }
      ],
      "name": "janes",
      "outputs": [
        {
          "name": "id",
          "type": "uint256"
        },
        {
          "name": "name",
          "type": "string"
        },
        {
          "name": "phoneNumber",
          "type": "uint256"
        },
        {
          "name": "emailAddress",
          "type": "string"
        },
        {
          "name": "lat",
          "type": "uint256"
        },
        {
          "name": "long",
          "type": "uint256"
        }
      ],
      "payable": false,
      "stateMutability": "view",
      "type": "function"
    },
    {
      "inputs": [],
      "payable": false,
      "stateMutability": "nonpayable",
      "type": "constructor"
    }
  ],
  "bytecode": "0x6060604052341561000f57600080fd5b6100a06040805190810160405280600c81526020017f41786965204d756c646f6f6d0000000000000000000000000000000000000000815250640183e29f7e6040805190810160405280601481526020017f61786965407374616e666f72646d65642e636f6d000000000000000000000000815250602d60226101c764010000000002610310176401000000009004565b6101316040805190810160405280600f81526020017f5061756c20426c756d656e7468616c000000000000000000000000000000000081525064011042c68a6040805190810160405280601081526020017f7061756c406e697276616e612e636f6d00000000000000000000000000000000815250603160586101c764010000000002610310176401000000009004565b6101c26040805190810160405280601181526020017f416469747961204b68616e64656c77616c0000000000000000000000000000008152506401c236b3fe6040805190810160405280601081526020017f61646974796140696e6469612e636f6d000000000000000000000000000000008152506016602c6101c764010000000002610310176401000000009004565b61032e565b60016000815480929190600101919050555060c0604051908101604052806001548152602001868152602001858152602001848152602001838152602001828152506000806001548152602001908152602001600020600082015181600001556020820151816001019080519060200190610243929190610289565b5060408201518160020155606082015181600301908051906020019061026a929190610289565b506080820151816004015560a082015181600501559050505050505050565b828054600181600116156101000203166002900490600052602060002090601f016020900481019282601f106102ca57805160ff19168380011785556102f8565b828001600101855582156102f8579182015b828111156102f75782518255916020019190600101906102dc565b5b5090506103059190610309565b5090565b61032b91905b8082111561032757600081600090555060010161030f565b5090565b90565b6104a38061033d6000396000f30060606040526004361061004c576000357c0100000000000000000000000000000000000000000000000000000000900463ffffffff16806307eae97f14610051578063321ff9301461007a575b600080fd5b341561005c57600080fd5b61006461019e565b6040518082815260200191505060405180910390f35b341561008557600080fd5b61009b60048080359060200190919050506101a4565b604051808781526020018060200186815260200180602001858152602001848152602001838103835288818151815260200191508051906020019080838360005b838110156100f75780820151818401526020810190506100dc565b50505050905090810190601f1680156101245780820380516001836020036101000a031916815260200191505b50838103825286818151815260200191508051906020019080838360005b8381101561015d578082015181840152602081019050610142565b50505050905090810190601f16801561018a5780820380516001836020036101000a031916815260200191505b509850505050505050505060405180910390f35b60015481565b6000602052806000526040600020600091509050806000015490806001018054600181600116156101000203166002900480601f0160208091040260200160405190810160405280929190818152602001828054600181600116156101000203166002900480156102565780601f1061022b57610100808354040283529160200191610256565b820191906000526020600020905b81548152906001019060200180831161023957829003601f168201915b505050505090806002015490806003018054600181600116156101000203166002900480601f0160208091040260200160405190810160405280929190818152602001828054600181600116156101000203166002900480156102fa5780601f106102cf576101008083540402835291602001916102fa565b820191906000526020600020905b8154815290600101906020018083116102dd57829003601f168201915b5050505050908060040154908060050154905086565b60016000815480929190600101919050555060c060405190810160405280600154815260200186815260200185815260200184815260200183815260200182815250600080600154815260200190815260200160002060008201518160000155602082015181600101908051906020019061038c9291906103d2565b506040820151816002015560608201518160030190805190602001906103b39291906103d2565b506080820151816004015560a082015181600501559050505050505050565b828054600181600116156101000203166002900490600052602060002090601f016020900481019282601f1061041357805160ff1916838001178555610441565b82800160010185558215610441579182015b82811115610440578251825591602001919060010190610425565b5b50905061044e9190610452565b5090565b61047491905b80821115610470576000816000905550600101610458565b5090565b905600a165627a7a723058208e01152f118c19b52365fcad2ffa68106c632d582873df7db70e557ba50a3dc40029",
  "source": "pragma solidity ^0.4.2;\n\ncontract NeedHelp {\n  // Model a midwife\n  struct Jane {\n    uint id;\n    string name;\n    uint phoneNumber;\n    string emailAddress;\n    uint lat;\n    uint long;\n  }\n  //  Fetch midwives\n  mapping(uint => Jane) public janes;\n  // Number of midmives\n  uint public janesCount;\n\n  function NeedHelp () public {\n    addJane(\"Axie Muldoom\", 6507634558, \"axie@stanfordmed.com\", 45, 34);\n    addJane(\"Paul Blumenthal\", 4567778954, \"paul@nirvana.com\", 49, 88);\n    addJane(\"Aditya Khandelwal\", 7553332222, \"aditya@india.com\", 22, 44);\n  }\n\n  function addJane (string _name, uint _phoneNumber, string _emailAddress, uint _lat, uint _long) private {\n    janesCount++;\n    janes[janesCount] = Jane(janesCount, _name, _phoneNumber, _emailAddress, _lat, _long);\n  }\n}\n",
  "sourcePath": "/Users/akhand/Desktop/jane-network/contracts/NeedHelp.sol",
  "compiler": {
    "name": "solc",
    "version": "0.4.21+commit.dfe3193c.Emscripten.clang"
  },
  "schemaVersion": "2.0.0",
  "updatedAt": "2018-04-14T23:29:07.254Z"
}